:020000040000FA
:1000000018F09FE518F09FE518F09FE518F09FE5C0
:1000100018F09FE50000A0E1F0FF1FE518F09FE554
:100020005800000040000000701B00004800000065
:100030004C000000000000005000000054000000D0
:10004000FEFFFFEAFEFFFFEAFEFFFFEAFEFFFFEA18
:10005000FEFFFFEAFEFFFFEA94009FE5AA10A0E37F
:100060005520A0E32430A0E3043080E50130A0E374
:10007000003080E50C1080E50C2080E5083090E52C
:10008000013B13E2FCFFFF0A0330A0E3003080E5F0
:100090000C1080E50C2080E558009FE50410A0E3DB
:1000A000041080E50210A0E3001080E548009FE501
:1000B000DBF021E300D0A0E1080040E2D7F021E32B
:1000C00000D0A0E1080040E2D1F021E300D0A0E19F
:1000D000080040E2D2F021E300D0A0E1030C40E2AE
:1000E000D3F021E300D0A0E1030C40E20C009FE537
:1000F00010FF2FE180C01FE000C01FE0D83C00408F
:1001000004010000000000EB2E0000EB2C008FE249
:10011000000C90E800A08AE000B08BE001704AE299
:100120000B005AE10000001A260000EB0F00BAE8AD
:1001300018E04FE2010013E303F0471013FF2FE133
:10014000E81B0000081C0000102052E27800B028D4
:100150007800A128FBFFFF8A822EB0E13000B02892
:100160003000A12800409045004081451EFF2FE14E
:100170000030B0E30040B0E30050B0E30060B0E313
:10018000102052E27800A128FCFFFF8A822EB0E105
:100190003000A128003081451EFF2FE101C08FE211
:1001A0001CFF2FE11FB5059886460FBC009C02B0CE
:1001B0007047000001C08FE21CFF2FE130B475468C
:1001C000AE4630BC704700002B0600EB0210A0E1E9
:1001D000F1FFFFEB1CC09FE50FC08CE001001CE3AA
:1001E0000DE08F120FE0A0011CFF2FE101C08FE294
:1001F0001CFF2FE101F072FCB70000007847C046F9
:1002000003002DE9EAFFFFEB0300BDE8380600EB31
:100210000C009FE50C109FE504209FE508309FE54A
:100220001EFF2FE1B8360040C0390040B83600400C
:10023000C0461121002000F01EF92B490870F8E794
:10024000C04629480078012805D10122102100204C
:1002500000F025F9F5E700221021100000F01FF949
:10026000EFE77D20C0002149C860080040680121F7
:1002700008431E494860704710B5E120400200F075
:1002800045F900F095F8FFF7ECFF012018490870D8
:1002900010BC08BC184782B0FFF7EEFF15480121DB
:1002A000002364220091019013A1164800F0F0FA97
:1002B00015480121002364220091019013A11648E2
:1002C00000F0E6FA00F0A5FEC046FEE707484068E9
:1002D000022108430549486008004068022188431C
:1002E000024948607047000008000040008000E0BC
:1002F00000C11FE0000000404C65645F5461736BF7
:1003000000000000410200000400004042757474C7
:100310006F6E5F5461736B003102000001002DE9C4
:1003200000204DE90000A0E104D04DE20100BDE84D
:10033000004020E900E0A0E10100BDE8FF7F4EE9B8
:100340000000A0E13CE04EE200004FE101002EE998
:100350004C009FE5000090E501002EE944009FE578
:10036000001090E500E081E53C009FE50FE0A0E192
:1003700010FF2FE12C009FE5000090E500E090E5E4
:100380001C009FE50200BEE8001080E50100BEE809
:1003900000F06FE1FF7FDEE80000A0E13CE09EE5B9
:1003A00004F05EE2AC0000406C0000400506000076
:1003B00000205BE041004118514A515C002902D005
:1003C000012950D127E0410041184D4A8918897808
:1003D00000290CD14B49896842008218484BD21839
:1003E000537801229A409143464A916012E04100BD
:1003F0004118434A8918897801290BD141498968F4
:10040000420082183E4BD218537801229A40114381
:100410003C4A916028E041004118394A891889789E
:1004200000290CD13749896942008218344BD2180F
:10043000537801229A409143324A916112E041007F
:1004400041182F4A8918897801290BD12D498969CA
:10045000420082182A4BD218537801229A40114345
:10046000284A916100E0C046C046401C26490988E0
:1004700088429FDB70470200002A02D0012A0CD17B
:1004800005E0204B1B68CB40D807C00F05E01D4B93
:100490001B69CB40D807C00FC046C046704710B498
:1004A000002802D0012827D113E0002A07D1154BDC
:1004B000DB6801248C402343124CE36008E0012AEE
:1004C00006D1104B5B6801248C4023430D4C6360C4
:1004D00012E0002A07D10B4BDB6901248C40234337
:1004E000084CE36108E0012A06D1064B5B69012450
:1004F0008C402343034C6361C04610BC704700002E
:100500000A000040008002E06400004070B5050071
:100510005A48006801210904084358490860080046
:100520000068012189040843544908602E01310004
:10053000534801F0EBFA04005248007B8021084345
:10054000504908730C70240A0C71072008720320AC
:1005500008734814C068802188434B49C86008006C
:100560000069802108434849086148484849486073
:1005700027204849486043480079032108434149FE
:10058000087170BC08BC1847010043480078012876
:1005900009D10020404A107040480078000600163B
:1005A0000870012070470020FCE7364A1070704741
:1005B00070B505000C003A480078002820D1002DC5
:1005C0001ED038490C7036490C70002303E0E85CFB
:1005D0003549C8545B1CA342F9DB31490A780978D4
:1005E000491E2F4E31702F490978891A2E4A515CC5
:1005F00009060816FFF7D9FF012070BC08BC184790
:100600000020FAE710B41F4A107A2EE00207120FFA
:10061000022A0BD0042A1CD0062A02D00C2A20D190
:1006200016E0184A127D110609161BE01C4A1278C2
:10063000002A0CDD1A4A13781278521E184C2270C8
:10064000184A1278D21A184B9A5C0E4B1A7009E0AD
:10065000C0460C4A1278114B1A7001220E4B1A70C8
:1006600000E0C046C046074A107AC207D20FCDD07C
:100670000022054B1A6310BC7047000000C002E066
:1006800000879303000001E000F0FFFF1C0300005F
:1006900000F1FFFF00F2FFFF66000040670000402E
:1006A0006900004068000040C800004001000831B7
:1006B00041600021C943816001000831C1600161CE
:1006C00000210160704700210161704742684A6063
:1006D00093688B60936859609160086103685B1C44
:1006E0000360704710B402000B685C1C01D11069F4
:1006F00007E01000083000E04068446824689C422D
:10070000FAD944684C604C68A160886041600A6115
:100710001468641C146010BC704701000A694B68BF
:1007200088689860081D09C858605068884201D1DF
:1007300088685060002008611068401E10601068D2
:100740007047000010B5002406E014216143FE4A02
:100750008818FFF7ABFF641C042CF6D3FB48FFF7A7
:10076000A5FFFB48FFF7A2FFFA48FFF79FFFFA48F3
:10077000FFF79CFFF948FFF799FFF948FFF796FF4D
:10078000F348F8490860F348F749086010BC08BC12
:10079000184710B5040000F0B2FFF4480068401C90
:1007A000F2490860F2480068002808D1F048046067
:1007B0000800006801280ED1FFF7C4FF0BE0ED48E8
:1007C0000068002807D1EA480068C06AE16A8842E8
:1007D00001D8E7480460E8480068401CE649086022
:1007E000211DDA48FFF77EFF00F094FFE148006822
:1007F000002801D0DE48006810BC08BC1847FFB5CF
:1008000081B00E000A9F0C9C216B0398401E800053
:10081000081800900098C008C0000090002E11D069
:10082000002508E0715D200034304155705D0028DE
:1008300000D102E06D1C082DF4D3C04600213B20FE
:10084000015502E0002134200155042F00D3032775
:10085000E762201DFFF737FF20001830FFF733FF56
:1008600024610420C01BA06164620021E163402078
:100870000155049A684603C800F0DAFE20600B9820
:10088000002801D00B98046005B0F0BC08BC1847E4
:10089000FFB585B01700B80000F09DFF0600002EE0
:1008A0000BD0482000F097FF0400002C01D02663F5
:1008B00004E0300000F0EFFF00E00024002C10D036
:1008C00000220EA803C86B4613C303923A00089B8C
:1008D00005A803C8FFF793FF2000FFF75AFF012583
:1008E00001E00025ED43280009B0F0BC08BC184722
:1008F00010B500F004FFA148046800F00BFF2000D1
:1009000010BC08BC1847FFB585B017000020049044
:10091000B80000F060FF0600002E0BD0482000F069
:100920005AFF0400002C01D0266304E0300000F0E0
:10093000B2FF00E00024002C10D000220EA803C853
:100940006B4613C303923A00089B05A803C8FFF740
:1009500056FF2000FFF71DFF012501E00025ED43B4
:1009600010986064FFF7C4FF0490616C0498081845
:100970006060211D7548FFF7B5FE280009B0F0BC86
:1009800008BC1847774800680068002801D101209A
:1009900000E00020002804D00020C043784908600F
:1009A00005E070480068C0680068754908607047D5
:1009B00010B50400206B00F06EFF200000F06BFF0C
:1009C00010BC08BC184770B5050000F098FE002D5B
:1009D00002D16748006800E028000400201DFFF7EE
:1009E0009CFEA06A002803D020001830FFF795FE77
:1009F00061480068401C604908605D4800688442A6
:100A000009D1211D5548FFF761FE5E480068401C72
:100A10005C49086009E055480068401E5349086079
:100A20002000FFF7C5FFFFF7ADFF00F073FE514850
:100A30000068002805D04E480068844201D101F0CA
:100A400041F970BC08BC1847F8B5002000904E482A
:100A50000068002845D149480068451C47480560A2
:100A6000002D0FD13F4807683F4800683D490860A6
:100A70003D48076045480068401C44490860FFF74E
:100A800081FFC0463E480068854229D3C0463548AC
:100A900000680068002801D1012000E00020002843
:100AA00004D00020C0433649086018E02D48006893
:100AB000C068C4686668B54202D2314806600EE07C
:100AC000201DFFF72AFEA06A002803D0200018305E
:100AD000FFF723FE211D1D48FFF704FED7E7C046A0
:100AE00004E02B480068401C294908600098F8BCC5
:100AF00008BC184770B50024002600F000FE22480C
:100B00000068401E2049086008000068002865D180
:100B100016480068002861D03FE00F48C068C468EC
:100B200020001830FFF7F9FD201DFFF7F6FD211D0D
:100B30000648FFF7D7FD0E49E06A0968C96A88428E
:100B40002BD30120134927E0A4010040900100406D
:100B5000F4010040080200401C0200403002004046
:100B600044020040A4000040A8000040740000407F
:100B70006C00004080000040900000407800004081
:100B80009400004070000040A00000408C00004035
:100B900084000040880000400860F7480068002892
:100BA00001D1012000E000200028B6D0002C01D0A7
:100BB000FFF7E8FEF1480568002D0DD0C046FFF7AD
:100BC00043FF002802D00120ED4908606D1E002D72
:100BD000F5D10020E9490860E948006800F09AFD75
:100BE000300070BC08BC1847F8B505000E00E54899
:100BF0000768E5480068001DFFF78FFD681C08D1F5
:100C0000002E06D0E0480168091DE048FFF75EFDB0
:100C10001AE07C19DC4800684460BC4207D2DA481C
:100C20000168091DDA480068FFF75CFD0CE0D64852
:100C30000168091DD7480068FFF754FDD6480068D1
:100C4000844201D2D4480460F8BC08BC1847D34899
:100C50000068401CD14908607047F3B581B00400BA
:100C600000200090FFF7F3FFC6480668216802984D
:100C70000D182068B04207D92068A8420BD9B542A8
:100C800009D90120009006E02068A84201D8B542A9
:100C900001D90120009025600098002803D0A81BEE
:100CA0000021FFF7A1FFFFF725FF0700002F01D16B
:100CB00001F008F80098FEBC08BC184770B50400A5
:100CC0000025002C08D0FFF7C2FF00212000FFF70D
:100CD0008BFFFFF70FFF0500002D01D100F0F2FFA1
:100CE00070BC08BC184770B5040000F008FD002C6B
:100CF00002D1A548006800E020000600F56A00F077
:100D000009FD280070BC08BC184710B4010000237E
:100D1000002902D19C4C246800E00C002200D06A1B
:100D200010BC7047FEB507000D0000200090042D98
:100D300000D3032500F0E3FC002F02D192480068A5
:100D400000E038000400E66AAE4232D0B5420BD96A
:100D50008D48006884420DD08B480068C06AA84264
:100D600008D80120009005E087480068844201D13E
:100D700001200090E06A0190E562A069C00FC00701
:100D800002D10420401BA0616169142201985043E4
:100D9000834A8018814201D1012000E00020002810
:100DA00006D0201DFFF7B9FC211D7E48FFF79AFCF5
:100DB000C04600F0AFFCFEBC08BC1847774800688E
:100DC000002803D001206E49086027E000206C490C
:100DD00008607548016800E0491E14204843704AC5
:100DE0001058002801D1012000E000200028F3D194
:100DF00014224A436A4BD01842685268426002008B
:100E000008324368934202D14268526842604268A5
:100E1000D2685D4B1A6064480160C046704770B587
:100E2000050000F06CFC002D02D15748006800E07E
:100E300028000400201DFFF770FCA06A002803D0E2
:100E400020001830FFF769FC211D5048FFF73EFCD9
:100E5000002009E021004031095C012903D1002272
:100E6000210040310A54401C0128F3DB00F052FC01
:100E70004E480068002805D000F041FCFFF782FDD5
:100E800000F048FC40480068844212D1474800689E
:100E9000002802D000F016FF0BE03C4800684449EF
:100EA0000968884203D100203749086001E0FFF754
:100EB00085FF70BC08BC184710B4010000200A0070
:100EC000324C5369A34201D1012300E00023002BDF
:100ED00011D0294C936AA34201D1012300E00023E1
:100EE000002B08D1936A002B01D1012300E00023DD
:100EF000002B00D0012010BC704770B505002C00FD
:100F000021480068844213D0002C11D000F0F7FB78
:100F10002000FFF7D1FF002808D0201DFFF7FDFBC0
:100F2000211D2048FFF7DEFB1748006800F0F2FBA8
:100F300070BC08BC1847F8B5050000262C00002737
:100F40002000FFF7B9FF002839D0144800680028B6
:100F500030D10D49E06A0968C96A884203D3012685
:100F6000012007490860201DFFF7D7FB211D0D4810
:100F7000FFF7B8FB23E000001C02004084000040A3
:100F800088000040780000406C00004044020040AF
:100F9000A8000040A400004094000040A0000040D1
:100FA000A4010040900100407C000040800000400F
:100FB0007400004021001831F948FFF787FB30002A
:100FC000F8BC08BC184710B516E000F098FBF548CF
:100FD000C068C468201DFFF7A0FBF3480068401EEE
:100FE000F1490860F1480068401EF049086000F0CF
:100FF00091FB2000FFF7DCFCEC4800680028E4D1FE
:1010000010BC08BC1847C046FFF7DDFF00F05AFED1
:10101000FAE73EB56425C0460020009003005A223E
:10102000E3A101AC21C4E448FFF76DFC0400012CEE
:101030000CD100F051FEA01EE04908600120E049FB
:1010400008600020DF49086000F04FFBDE480068C0
:101050003EBC08BC184710B500F03EFE0020D84941
:10106000086000F04BFB10BC08BC18470021D54AB3
:1010700010687047CC48006870470100002902D111
:10108000D248006800E008000200100034307047C9
:1010900070B50400FFF7DBFDCD4800680019CC49AE
:1010A0000860FFF727FD0500280070BC08BC184742
:1010B00070B505000C00C548016818312800FFF71D
:1010C00011FB01212000FFF78FFD70BC08BC184701
:1010D00070B506000C0015000120C0072043BB4975
:1010E00009688861B948016818313000FFF7EEFAE5
:1010F00001212800FFF778FD70BC08BC184770B5C7
:101100000600F068C46820001830FFF706FBB148FD
:101110000068002807D1201DFFF7FFFA211DAE4807
:10112000FFF7E0FA04E0210018319D48FFF7CEFAFE
:10113000A649E06A0968C96A884204D901250120E4
:10114000A649086000E00025280070BC08BC1847CC
:1011500070B504000E000120C00730432060E56830
:101160002000FFF7DAFA281DFFF7D7FA291D9A4861
:10117000FFF7B8FA9549E86A0968C96A884202D94E
:1011800001209649086070BC08BC184710B50400DF
:1011900000F0B5FA9248006820608A4800686060F4
:1011A00000F0B8FA10BC08BC18478D490968016006
:1011B000844909684160704770B506000C0000F072
:1011C0009EFA804802687068131A2068401C01D19A
:1011D000002519E0824930680968884206D07068A5
:1011E000904203D80125002020600DE0206898423D
:1011F00007D92068C01A20603000FFF7D6FF00250D
:1012000002E000202060012500F084FA280070BC74
:1012100008BC184701207149086070476B4909688C
:1012200088696A490968C96A0422511A674A1268BA
:1012300091617047F8B504000F00160000F05FFAE6
:10124000A100624800683C30405800280BD10121C1
:101250005E48006840300155002E04D03000FFF792
:10126000C3FC00F02FFD00F055FA00F048FAA10091
:10127000564800683C304558002D0ED0002F06D04F
:101280000021A200514800683C30815005E0681EF2
:10129000A2004E4909683C31885000214B48006843
:1012A0004030015500F036FA2800F8BC08BC184759
:1012B000FFB581B004000F001D0000F020FA434884
:1012C00000684030005D022814D0A2003F49096840
:1012D0003C3150180168B943016001213B48006866
:1012E000403001550A98002804D00A98FFF77CFC8A
:1012F00000F0E8FC00F00EFA00F001FA002D05D035
:10130000A100324800683C30405828602F480068EF
:101310004030005D022801D0002609E0A2002B49E0
:1013200009683C315018026803998A43026001261B
:101330000021264800684030015500F0EBF93000EC
:1013400005B0F0BC08BC1847FFB583B00D0016000F
:101350001F0001200290039C00F0D1F90C98002896
:1013600005D0A90020003C3041580C9801602000B5
:101370004030405D019002212000403041553B004B
:1013800000F0C0FC054A04303A3F4B00A9002000A1
:101390003C3040583043AA0021003C3188503DE0A9
:1013A0001C02004030020040740000407000004009
:1013B00049444C4500000000071000009400004024
:1013C00080000040780000409C0000406C0000401D
:1013D00084000040A00000409001004088000040D0
:1013E0008C000040A90020003C304058401CAA005E
:1013F00021003C31885011E0A90020003C304650CB
:101400000CE00198022804D0A90020003C3046508E
:1014100001E00020029001E000E0C046C0460198D3
:10142000012808D1201DFFF778F9211D7B48FFF71F
:1014300059F97B48006800F06DF9029807B0F0BCDC
:1014400008BC1847FFB583B00D0016001F0001202F
:101450000190039C002000900C98002805D0A90062
:1014600020003C3041580C98016020004030405D25
:10147000029002212000403041553B0000F042FC28
:101480000528040E181D2900A90020003C304058F2
:101490003043AA0021003C3188501BE0A900200005
:1014A0003C304058401CAA0021003C31885011E0DB
:1014B000A90020003C3046500CE00298022804D0DD
:1014C000A90020003C30465001E00020019001E0DE
:1014D00000E0C046C046029801281FD1514800686C
:1014E000002807D1201DFFF718F9211D4B48FFF7F1
:1014F000F9F804E0210018314B48FFF7E7F84849B4
:10150000E06A0968C96A884208D90D98002802D0A3
:1015100001210D980160012044490860019807B03D
:10152000F0BC08BC1847FEB505000E0017002C00E3
:101530000020009020004030805D019002212000BA
:1015400040308155B100001F4058401CB2002100BE
:101550003C318850019801281DD13248006800288C
:1015600007D1201DFFF7D9F8211D2C48FFF7BAF845
:1015700004E0210018312C48FFF7A8F82849E06A58
:101580000968C96A884206D9002F01D00120386055
:10159000012026490860FEBC08BC1847F8B50600C3
:1015A0000C00002E02D11E48006800E03000070049
:1015B00000F0A5F838004030005D022805D1002178
:1015C000380040300155012500E0002500F0A2F868
:1015D0002800F8BC08BC1847F8B506000C00170036
:1015E000002E02D10E48006800E03000050000F037
:1015F00086F8A10028003C3040580090A100280047
:101600003C304058B843A20029003C31885000F0DB
:1016100081F80098F8BC08BC184700009001004011
:101620006C000040A00000401C0200408800004008
:1016300030B40300001F0C1D0460001F3F4C046009
:10164000001F0360001F3E4C0460001F3D4C0460FF
:10165000001F3D4C0460001F3C4C0460001F3C4CCC
:101660000460001F3B4C0460001F3B4C0460001FE3
:101670003A4C0460001F3A4C0460001F394C04606F
:10168000001F394C0460001F64100460001F0260DA
:10169000001F1F240460CC07E40F03D0202504683A
:1016A0002C430460001F0024046030BC70470021FC
:1016B0002E4AD1602E4811008861032151615114D6
:1016C000C968102291432B4AD16011000969102288
:1016D0001143284A11612849284A11602421284AC7
:1016E00011600121214A5160704710B5FFF7DFFFFB
:1016F00000F020FA002010BC08BC1847704710B555
:1017000000F0EAFA1F480068401C1E49086010BC3F
:1017100008BC184710B51B48006800280AD01948B3
:101720000068401E1749086008000068002801D1C1
:1017300000F0DEFA10BC08BC18470000AAAAAAAA4A
:1017400012121212111111111010101009090909A9
:101750000808080807070707060606060505050521
:10176000040404040303030302020202004000E035
:1017700060EA000000F0FFFF8817000000F1FFFFA3
:1017800000F2FFFFAC0000400F502DE94E0100EBCE
:101790000100A0E310109FE5000081E50000A0E338
:1017A000D00F00E50F50BDE804F05EE2004000E01D
:1017B0004A4AD008C0004A4A10600022484B5A608A
:1017C000484A494B5A6000221A600100454A4A6063
:1017D0001A000A607047F8B5040000200090FFF777
:1017E00036FA42480068002804D1FFF7E1FF0120E3
:1017F0003E490860002C12D020000830A0420ED9CB
:1018000008346007400F0821081A0019A04204D9C3
:101810006007400F081A041902E0002400E00024C9
:10182000002C32D03248006884422ED82C4F380029
:10183000056801E02F002D686868A04202D2286880
:101840000028F7D1284885421FD03868083000901A
:10185000286838606868001B102810D92E1968683D
:10186000001B70606C6071681D4800E000680268D1
:1018700052688A42FAD3026832600660C0461C4948
:1018800068680968081A1A490860FFF733F9009870
:10189000F8BC08BC184770B506003500002E16D0FD
:1018A000083D2C00FFF7D3F961680D4800E000689F
:1018B000026852688A42FAD30268226004600C49C6
:1018C0006068096840180A490860FFF713F970BC9E
:1018D00008BC18470648006870477047600200401F
:1018E000B8000040F8330000C0000040B4000040E1
:1018F000B0000040013090E12100004A0020B0E338
:10190000A03071E01A00003A203271E00F00003A76
:10191000203471E00100003A00C0A0E3200000EA9A
:10192000A03371E0810340200220B2E0203371E057
:10193000010340200220B2E0A03271E08102402089
:101940000220B2E0203271E0010240200220B2E029
:10195000A03171E0810140200220B2E0203171E02D
:10196000010140200220B2E0A03071E0810040205F
:101970000220B2E0011050E00010A0310200A2E00D
:101980001EFF2FE1022111E20010614240C032E04F
:1019900000006022203271E01D00003A203471E026
:1019A0000F00003A0113A0E1203471E03F2382E3ED
:1019B0000B00003A0113A0E1203471E03F2682E3DE
:1019C0000700003A0113A0E1203471E03F2982E3CF
:1019D0000113A0213F2C8223003071E21D00002A58
:1019E0002113A021A03371E0810340200220B2E046
:1019F000203371E0010340200220B2E0A03271E008
:101A0000810240200220B2E0203271E00102402039
:101A10000220B2E0A03171E0810140200220B2E05A
:101A2000203171E0010140200220B2E0EBFFFF2AEB
:101A3000A03071E0810040200220B2E0011050E0AF
:101A40000010A0310200A2E0CCCFB0E10000604263
:101A5000001061221EFF2FE1CCCFB0E100006042F8
:101A600001402DE90000B0E30000A0E10240BDE824
:101A70001EFF2FE170477047704700000E50A0E135
:101A8000180000EB05E0A0E10050B0E10D10A0E16E
:101A90000A30A0E10700C0E300D0A0E160D08DE2F1
:101AA00020402DE9D9F9FFEB2040BDE80060A0E31C
:101AB0000070A0E30080A0E300B0A0E30710C1E342
:101AC00005C0A0E1C009ACE8C009ACE8C009ACE8B9
:101AD000C009ACE801D0A0E11EFF2FE10400C04620
:101AE000C0462000FEF78AFB00009FE51EFF2FE1A5
:101AF0005836004001C08FE21CFF2FE10149182039
:101B0000ABDFFEE7260002001EFF2FE17847C0464C
:101B10000020B0E3203171E092FFFF3AA03271E083
:101B200087FFFF3A203471E07CFFFF3A00C0A0E35A
:101B30009BFFFFEA7847C0466C019FE5000090E5F7
:101B400000E090E564019FE50200BEE8001080E53A
:101B50000100BEE800F06FE1FF7FDEE80000A0E1D9
:101B60003CE09EE504F05EE2000000EF1EFF2FE186
:101B700004E08EE201002DE900204DE90000A0E123
:101B800004D04DE20100BDE8004020E900E0A0E102
:101B90000100BDE8FF7F4EE90000A0E13CE04EE21D
:101BA00000004FE101002EE900019FE5000090E5F3
:101BB00001002EE9F0009FE5001090E500E081E5CE
:101BC000EC009FE50FE0A0E110FF2FE1D8009FE5BA
:101BD000000090E500E090E5D0009FE50200BEE83F
:101BE000001080E50100BEE800F06FE1FF7FDEE855
:101BF0000000A0E13CE09EE504F05EE201002DE97A
:101C000000204DE90000A0E104D04DE20100BDE854
:101C1000004020E900E0A0E10100BDE8FF7F4EE9BF
:101C20000000A0E13CE04EE200004FE101002EE99F
:101C300078009FE5000090E501002EE968009FE52F
:101C4000001090E500E081E568009FE50FE0A0E16D
:101C500010FF2FE1000050E30200000A50009FE552
:101C60000FE0A0E110FF2FE10100A0E348109FE585
:101C7000000081E544009FE5000080E528009FE525
:101C8000000090E500E090E520009FE50200BEE83E
:101C9000001080E50100BEE800F06FE1FF7FDEE8A4
:101CA0000000A0E13CE09EE504F05EE26C00004034
:101CB000AC000040BD0D0000490A0000004000E0FB
:101CC00030F0FFFF7847C046A6FFFFEA00C09FE55F
:101CD0001CFF2FE1490A00007847C04600000FE1D1
:101CE000801080E301F021E1800000E21EFF2FE17F
:101CF0007847C04600000FE18000C0E300F021E11A
:101D00001EFF2FE17847C04601C05EE50C0053E19D
:101D10000100003A0C30DEE7000000EA0330DEE7A5
:101D200083C08EE01CFF2FE1481D00000000004032
:101D3000C800000048010000101E0000C80000405C
:101D4000103C0000700100000000000000000000D6
:101D50000000001001001100001201001301001426
:101D600001001501001601001701001801001901FA
:101D7000001A01001B01001D01001E01001F0101CE
:101D800010010111010112010113010114010115DA
:101D900001011601011701011801011901011A01C0
:101DA000011B01011D01011E01011F011E00000098
:101DB0000000000000000000000000000000000023
:101DC0000000000000000000000000000000000013
:101DD0000000000000000000000000000000000003
:101DE00000000000030000000000000000000000F0
:101DF000000000000F270000F83300000000000082
:101E000000000000000000000000000000000000D2
:0400000500000104F2
:00000001FF
