:020000040000FA
:1000000018F09FE518F09FE518F09FE518F09FE5C0
:1000100018F09FE50000A0E1F0FF1FE518F09FE554
:1000200058000000400000002C1B000048000000A9
:100030004C000000000000005000000054000000D0
:10004000FEFFFFEAFEFFFFEAFEFFFFEAFEFFFFEA18
:10005000FEFFFFEAFEFFFFEA94009FE5AA10A0E37F
:100060005520A0E32430A0E3043080E50130A0E374
:10007000003080E50C1080E50C2080E5083090E52C
:10008000013B13E2FCFFFF0A0330A0E3003080E5F0
:100090000C1080E50C2080E558009FE50410A0E3DB
:1000A000041080E50210A0E3001080E548009FE501
:1000B000DBF021E300D0A0E1080040E2D7F021E32B
:1000C00000D0A0E1080040E2D1F021E300D0A0E19F
:1000D000080040E2D2F021E300D0A0E1030C40E2AE
:1000E000D3F021E300D0A0E1030C40E20C009FE537
:1000F00010FF2FE180C01FE000C01FE0D83C00408F
:1001000004010000000000EB2E0000EB2C008FE249
:10011000000C90E800A08AE000B08BE001704AE299
:100120000B005AE10000001A260000EB0F00BAE8AD
:1001300018E04FE2010013E303F0471013FF2FE133
:10014000A41B0000C41B0000102052E27800B0285D
:100150007800A128FBFFFF8A822EB0E13000B02892
:100160003000A12800409045004081451EFF2FE14E
:100170000030B0E30040B0E30050B0E30060B0E313
:10018000102052E27800A128FCFFFF8A822EB0E105
:100190003000A128003081451EFF2FE101C08FE211
:1001A0001CFF2FE11FB5059886460FBC009C02B0CE
:1001B0007047000001C08FE21CFF2FE130B475468C
:1001C000AE4630BC704700001A0600EB0210A0E1FA
:1001D000F1FFFFEB1CC09FE50FC08CE001001CE3AA
:1001E0000DE08F120FE0A0011CFF2FE101C08FE294
:1001F0001CFF2FE101F050FCB70000007847C0461B
:1002000003002DE9EAFFFFEB0300BDE8270600EB42
:100210000C009FE50C109FE504209FE508309FE54A
:100220001EFF2FE1B8360040C0390040B83600400C
:10023000C0461121002000F01EF92B490870F8E794
:10024000C04629480078012805D10122102100204C
:1002500000F025F9F5E700221021100000F01FF949
:10026000EFE77D20C0002149C860080040680121F7
:1002700008431E494860704710B5E120400200F075
:1002800045F900F095F8FFF7ECFF012018490870D8
:1002900010BC08BC184782B0FFF7EEFF15480121DB
:1002A000002364220091019013A1164800F0F0FA97
:1002B00015480121002364220091019013A11648E2
:1002C00000F0E6FA00F086FEC046FEE70748406808
:1002D000022108430549486008004068022188431C
:1002E000024948607047000008000040008000E0BC
:1002F00000C11FE0000000404C65645F5461736BF7
:1003000000000000410200000400004042757474C7
:100310006F6E5F5461736B003102000001002DE9C4
:1003200000204DE90000A0E104D04DE20100BDE84D
:10033000004020E900E0A0E10100BDE8FF7F4EE9B8
:100340000000A0E13CE04EE200004FE101002EE998
:100350004C009FE5000090E501002EE944009FE578
:10036000001090E500E081E53C009FE50FE0A0E192
:1003700010FF2FE12C009FE5000090E500E090E5E4
:100380001C009FE50200BEE8001080E50100BEE809
:1003900000F06FE1FF7FDEE80000A0E13CE09EE5B9
:1003A00004F05EE2AC0000406C0000400506000076
:1003B00000205BE041004118514A515C002902D005
:1003C000012950D127E0410041184D4A8918897808
:1003D00000290CD14B49896842008218484BD21839
:1003E000537801229A409143464A916012E04100BD
:1003F0004118434A8918897801290BD141498968F4
:10040000420082183E4BD218537801229A40114381
:100410003C4A916028E041004118394A891889789E
:1004200000290CD13749896942008218344BD2180F
:10043000537801229A409143324A916112E041007F
:1004400041182F4A8918897801290BD12D498969CA
:10045000420082182A4BD218537801229A40114345
:10046000284A916100E0C046C046401C26490988E0
:1004700088429FDB70470200002A02D0012A0CD17B
:1004800005E0204B1B68CB40D807C00F05E01D4B93
:100490001B69CB40D807C00FC046C046704710B498
:1004A000002802D0012827D113E0002A07D1154BDC
:1004B000DB6801248C402343124CE36008E0012AEE
:1004C00006D1104B5B6801248C4023430D4C6360C4
:1004D00012E0002A07D10B4BDB6901248C40234337
:1004E000084CE36108E0012A06D1064B5B69012450
:1004F0008C402343034C6361C04610BC704700002E
:100500000A000040008002E06400004070B5050071
:100510005A48006801210904084358490860080046
:100520000068012189040843544908602E01310004
:10053000534801F0C9FA04005248007B8021084367
:10054000504908730C70240A0C71072008720320AC
:1005500008734814C068802188434B49C86008006C
:100560000069802108434849086148484849486073
:1005700027204849486043480079032108434149FE
:10058000087170BC08BC1847010043480078012876
:1005900009D10020404A107040480078000600163B
:1005A0000870012070470020FCE7364A1070704741
:1005B00070B505000C003A480078002820D1002DC5
:1005C0001ED038490C7036490C70002303E0E85CFB
:1005D0003549C8545B1CA342F9DB31490A780978D4
:1005E000491E2F4E31702F490978891A2E4A515CC5
:1005F00009060816FFF7D9FF012070BC08BC184790
:100600000020FAE710B41F4A107A2EE00207120FFA
:10061000022A0BD0042A1CD0062A02D00C2A20D190
:1006200016E0184A127D110609161BE01C4A1278C2
:10063000002A0CDD1A4A13781278521E184C2270C8
:10064000184A1278D21A184B9A5C0E4B1A7009E0AD
:10065000C0460C4A1278114B1A7001220E4B1A70C8
:1006600000E0C046C046074A107AC207D20FCDD07C
:100670000022054B1A6310BC7047000000C002E066
:1006800000879303000001E000F0FFFF1C0300005F
:1006900000F1FFFF00F2FFFF66000040670000402E
:1006A0006900004068000040C800004001000831B7
:1006B00041600021C943816001000831C1600161CE
:1006C00000210160704700210161704742684A6063
:1006D00093688B60936859609160086103685B1C44
:1006E0000360704710B402000B685C1C01D11069F4
:1006F00007E01000083000E04068446824689C422D
:10070000FAD944684C604C68A160886041600A6115
:100710001468641C146010BC704701000A694B68BF
:1007200088689860081D09C858605068884201D1DF
:1007300088685060002008611068401E10601068D2
:100740007047000010B5002406E014216143FE4A02
:100750008818FFF7ABFF641C042CF6D3FB48FFF7A7
:10076000A5FFFB48FFF7A2FFFA48FFF79FFFFA48F3
:10077000FFF79CFFF948FFF799FFF948FFF796FF4D
:10078000F348F8490860F348F749086010BC08BC12
:10079000184710B5040000F090FFF4480068401CB2
:1007A000F2490860F2480068002808D1F048046067
:1007B0000800006801280ED1FFF7C4FF0BE0ED48E8
:1007C0000068002807D1EA480068C06AE16A8842E8
:1007D00001D8E7480460E8480068401CE649086022
:1007E000211DDA48FFF77EFF00F072FFE148006844
:1007F000002801D0DE48006810BC08BC1847FFB5CF
:1008000081B00E000A9F0C9C216B0398401E800053
:10081000081800900098C008C0000090002E11D069
:10082000002508E0715D200034304155705D0028DE
:1008300000D102E06D1C082DF4D3C04600213B20FE
:10084000015502E0002134200155042F00D3032775
:10085000E762201DFFF737FF20001830FFF733FF56
:1008600024610420C01BA06164620021E163402078
:100870000155049A684603C800F0B8FE20600B9842
:10088000002801D00B98046005B0F0BC08BC1847E4
:10089000FFB585B01700B80000F07BFF0600002E02
:1008A0000BD0482000F075FF0400002C01D0266317
:1008B00004E0300000F0CDFF00E00024002C10D058
:1008C00000220EA803C86B4613C303923A00089B8C
:1008D00005A803C8FFF793FF2000FFF75AFF012583
:1008E00001E00025ED43280009B0F0BC08BC184722
:1008F00010B500F0E2FEA148046800F0E9FE200017
:1009000010BC08BC1847FFB585B017000020049044
:10091000B80000F03EFF0600002E0BD0482000F08B
:1009200038FF0400002C01D0266304E0300000F002
:1009300090FF00E00024002C10D000220EA803C875
:100940006B4613C303923A00089B05A803C8FFF740
:1009500056FF2000FFF71DFF012501E00025ED43B4
:1009600010986064FFF7C4FF0490616C0498081845
:100970006060211D7548FFF7B5FE280009B0F0BC86
:1009800008BC1847774800680068002801D101209A
:1009900000E00020002804D00020C043784908600F
:1009A00005E070480068C0680068754908607047D5
:1009B00010B50400206B00F04CFF200000F049FF50
:1009C00010BC08BC184770B5050000F076FE002D7D
:1009D00002D16748006800E028000400201DFFF7EE
:1009E0009CFEA06A002803D020001830FFF795FE77
:1009F00061480068401C604908605D4800688442A6
:100A000009D1211D5548FFF761FE5E480068401C72
:100A10005C49086009E055480068401E5349086079
:100A20002000FFF7C5FFFFF7ADFF00F051FE514872
:100A30000068002805D04E480068844201D101F0CA
:100A40001FF970BC08BC1847F8B5002000904E484C
:100A50000068002845D149480068451C47480560A2
:100A6000002D0FD13F4807683F4800683D490860A6
:100A70003D48076045480068401C44490860FFF74E
:100A800081FFC0463E480068854229D3C0463548AC
:100A900000680068002801D1012000E00020002843
:100AA00004D00020C0433649086018E02D48006893
:100AB000C068C4686668B54202D2314806600EE07C
:100AC000201DFFF72AFEA06A002803D0200018305E
:100AD000FFF723FE211D1D48FFF704FED7E7C046A0
:100AE00004E02B480068401C294908600098F8BCC5
:100AF00008BC184770B50024002600F0DEFD22482F
:100B00000068401E2049086008000068002865D180
:100B100016480068002861D03FE00F48C068C468EC
:100B200020001830FFF7F9FD201DFFF7F6FD211D0D
:100B30000648FFF7D7FD0E49E06A0968C96A88428E
:100B40002BD30120134927E0A4010040900100406D
:100B5000F4010040080200401C0200403002004046
:100B600044020040A4000040A8000040740000407F
:100B70006C00004080000040900000407800004081
:100B80009400004070000040A00000408C00004035
:100B900084000040880000400860FB48006800288E
:100BA00001D1012000E000200028B6D0002C01D0A7
:100BB000FFF7E8FEF5480568002D0DD0C046FFF7A9
:100BC00043FF002802D00120F14908606D1E002D6E
:100BD000F5D10020ED490860ED48006800F078FD8F
:100BE000300070BC08BC1847F8B505000E00E94895
:100BF0000768E9480068001DFFF78FFD681C08D1F1
:100C0000002E06D0E4480168091DE448FFF75EFDA8
:100C10001AE07C19E04800684460BC4207D2DE4814
:100C20000168091DDE480068FFF75CFD0CE0DA484A
:100C30000168091DDB480068FFF754FDDA480068C9
:100C4000844201D2D8480460F8BC08BC1847D74891
:100C50000068401CD54908607047F3B581B00400B6
:100C600000200090FFF7F3FFCA4806682168029849
:100C70000D182068B04207D92068A8420BD9B542A8
:100C800009D90120009006E02068A84201D8B542A9
:100C900001D90120009025600098002803D0A81BEE
:100CA0000021FFF7A1FFFFF725FF0700002F01D16B
:100CB00000F0E6FF0098FEBC08BC184770B50400C1
:100CC0000025002C08D0FFF7C2FF00212000FFF70D
:100CD0008BFFFFF70FFF0500002D01D100F0D0FFC3
:100CE00070BC08BC184770B5040000F0E6FC002C8E
:100CF00002D1A948006800E020000600F56A00F073
:100D0000E7FC280070BC08BC184710B401000023A1
:100D1000002902D1A04C246800E00C002200D06A17
:100D200010BC7047FEB507000D0000200090042D98
:100D300000D3032500F0C1FC002F02D196480068C3
:100D400000E038000400E66AAE4232D0B5420BD96A
:100D50009148006884420DD08F480068C06AA8425C
:100D600008D80120009005E08B480068844201D13A
:100D700001200090E06A0190E562A069C00FC00701
:100D800002D10420401BA0616169142201985043E4
:100D9000874A8018814201D1012000E0002000280C
:100DA00006D0201DFFF7B9FC211D8248FFF79AFCF1
:100DB000C04600F08DFCFEBC08BC18477B480068AC
:100DC000002803D001207249086007E00020704924
:100DD00008607848C068C0686F490860704770B59F
:100DE000050000F06AFC002D02D16B48006800E0AD
:100DF00028000400201DFFF790FCA06A002803D003
:100E000020001830FFF789FC211D6448FFF75EFCC5
:100E1000002009E021004031095C012903D10022B2
:100E2000210040310A54401C0128F3DB00F050FC43
:100E300061480068002805D000F03FFCFFF7A2FDE4
:100E400000F046FC54480068844212D15A480068B9
:100E5000002802D000F014FF0BE05048006857490A
:100E60000968884203D100204B49086001E0FFF780
:100E7000A5FF70BC08BC184710B4010000200A0090
:100E8000464C5369A34201D1012300E00023002B0B
:100E900011D03D4C936AA34201D1012300E000230D
:100EA000002B08D1936A002B01D1012300E000231D
:100EB000002B00D0012010BC704770B505002C003D
:100EC00035480068844213D0002C11D000F0F5FBA7
:100ED0002000FFF7D1FF002808D0201DFFF71DFCE0
:100EE000211D3448FFF7FEFB2B48006800F0F0FBA3
:100EF00070BC08BC1847F8B5050000262C00002778
:100F00002000FFF7B9FF00281AD028480068002801
:100F100011D12149E06A0968C96A884203D30126D0
:100F200001201B490860201DFFF7F7FB211D214808
:100F3000FFF7D8FB04E0210018311348FFF7C6FB88
:100F40003000F8BC08BC184710B516E000F0B5FB3F
:100F50001B48C068C468201DFFF7DFFB1748006806
:100F6000401E1649086017480068401E1549086071
:100F700000F0AEFB2000FFF71BFD124800680028C0
:100F8000E4D110BC08BC18471C020040840000409B
:100F900088000040780000406C000040440200409F
:100FA000A8000040A400004094000040A0000040C1
:100FB000A401004090010040800000407400004007
:100FC0003002004070000040C046FFF7BDFF00F057
:100FD00057FEFAE73EB56425C046002000900300A6
:100FE0005A22F8A101AC21C4F848FFF78CFC040098
:100FF000012C0CD100F04EFEA01EF5490860012026
:10100000F44908600020F449086000F04CFBF34804
:1010100000683EBC08BC184710B500F03BFE00203D
:10102000EC49086000F048FB10BC08BC18470021E0
:10103000E94A10687047EA480068704701000029D3
:1010400002D1E848006800E00800020010003430D7
:10105000704770B50400FFF7FAFDE3480068001917
:10106000E1490860FFF746FD0500280070BC08BC98
:10107000184770B505000C00DA48016818312800DF
:10108000FFF730FB01212000FFF7AEFD70BC08BC6C
:10109000184770B506000C0015000120C00720435A
:1010A000D04909688861CF48016818313000FFF7DE
:1010B0000DFB01212800FFF797FD70BC08BC184705
:1010C00070B50600F068C46820001830FFF725FBF3
:1010D000C6480068002807D1201DFFF71EFB211D10
:1010E000C348FFF7FFFA04E021001831C148FFF7B9
:1010F000EDFABC49E06A0968C96A884204D9012549
:101100000120BD49086000E00025280070BC08BC33
:10111000184770B504000E000120C007304320605E
:10112000E5682000FFF7F9FA281DFFF7F6FA291DF8
:10113000AF48FFF7D7FAAB49E86A0968C96A88423D
:1011400002D90120AC49086070BC08BC184710B532
:10115000040000F0B2FAA948006820609E480068C8
:10116000606000F0B5FA10BC08BC1847A3490968D4
:101170000160994909684160704770B506000C002C
:1011800000F09BFA944802687068131A2068401CAB
:1011900001D1002519E0994930680968884206D0D4
:1011A0007068904203D80125002020600DE020687F
:1011B000984207D92068C01A20603000FFF7D6FF98
:1011C000002502E000202060012500F081FA2800BF
:1011D00070BC08BC184701208749086070478149E6
:1011E000096888697F490968C96A0422511A7D4AD9
:1011F000126891617047F8B504000F00160000F006
:101200005CFAA100774800683C30405800280BD1B8
:1012100001217448006840300155002E04D0300090
:10122000FFF7E2FC00F02CFD00F052FA00F045FA66
:10123000A1006C4800683C304558002D0ED0002FAE
:1012400006D00021A200674800683C30815005E0CC
:10125000681EA200634909683C318850002161483A
:1012600000684030015500F033FA2800F8BC08BC93
:101270001847FFB581B004000F001D0000F01DFAF3
:10128000584800684030005D022814D0A20055493B
:1012900009683C3150180168B94301600121514887
:1012A0000068403001550A98002804D00A98FFF7DA
:1012B0009BFC00F0E5FC00F00BFA00F0FEF9002DBD
:1012C00005D0A100474800683C3040582860454898
:1012D00000684030005D022801D0002609E0A2002D
:1012E000404909683C315018026803998A430260FA
:1012F000012600213B4800684030015500F0E8F924
:10130000300005B0F0BC08BC1847FFB583B00D0035
:1013100016001F0001200290039C00F0CEF90C98EB
:10132000002805D0A90020003C3041580C980160ED
:1013300020004030405D01900221200040304155A6
:101340003B0000F0BDFC0528040E181D2900A90073
:1013500020003C3040583043AA0021003C318850E6
:101360001BE0A90020003C304058401CAA0021008E
:101370003C31885011E0A90020003C3046500CE080
:101380000198022804D0A90020003C30465001E01A
:101390000020029001E000E0C046C046019801280C
:1013A00008D1201DFFF7B9F9211D1148FFF79AF95F
:1013B0000C48006800F08CF9029807B0F0BC08BC3B
:1013C0001847000049444C4500000000C90F0000C8
:1013D0009400004080000040780000409C000040E5
:1013E000740000406C00004084000040A0000040F9
:1013F000900100401C020040880000408C0000402A
:10140000FFB583B00D0016001F0001200190039C62
:10141000002000900C98002805D0A90020003C3046
:1014200041580C98016020004030405D029002213C
:101430002000403041553B0000F042FC0528040EDE
:10144000181D2900A90020003C3040583043AA0054
:1014500021003C3188501BE0A90020003C3040585E
:10146000401CAA0021003C31885011E0A900200056
:101470003C3046500CE00298022804D0A90020001D
:101480003C30465001E00020019001E000E0C04601
:10149000C046029801281FD14F480068002807D194
:1014A000201DFFF73AF9211D4C48FFF71BF904E016
:1014B000210018314A48FFF709F94A49E06A0968EA
:1014C000C96A884208D90D98002802D001210D98D8
:1014D0000160012044490860019807B0F0BC08BCD5
:1014E0001847FEB505000E0017002C0000200090E4
:1014F00020004030805D0190022120004030815565
:10150000B100001F4058401CB20021003C318850FF
:10151000019801281DD130480068002807D1201DFE
:10152000FFF7FBF8211D2D48FFF7DCF804E0210050
:1015300018312B48FFF7CAF82A49E06A0968C96AD6
:10154000884206D9002F01D00120386001202649A9
:101550000860FEBC08BC1847F8B506000C00002E59
:1015600002D12048006800E03000070000F0A5F834
:1015700038004030005D022805D10021380040309D
:101580000155012500E0002500F0A2F82800F8BC74
:1015900008BC1847F8B506000C001700002E02D151
:1015A0001048006800E03000050000F086F8A10057
:1015B00028003C3040580090A10028003C304058A2
:1015C000B843A20029003C31885000F081F800980F
:1015D000F8BC08BC18470000A00000409001004083
:1015E0001C0200406C0000408800004030B4030042
:1015F000001F0C1D0460001F3F4C0460001F0360AF
:10160000001F3E4C0460001F3D4C0460001F3D4C19
:101610000460001F3C4C0460001F3C4C0460001F31
:101620003B4C0460001F3B4C0460001F3A4C0460BC
:10163000001F3A4C0460001F394C0460001F394CF5
:101640000460001F64100460001F0260001F1F245C
:101650000460CC07E40F03D0202504682C43046009
:10166000001F0024046030BC704700212E4AD16066
:101670002E4811008861032151615114C96810225C
:1016800091432B4AD1601100096910221143284A65
:1016900011612849284A11602421284A116001213A
:1016A000214A5160704710B5FFF7DFFF00F020FAC4
:1016B000002010BC08BC1847704710B500F0EAFACB
:1016C0001F480068401C1E49086010BC08BC184731
:1016D00010B51B48006800280AD019480068401E51
:1016E0001749086008000068002801D100F0DEFA00
:1016F00010BC08BC18470000AAAAAAAA121212120B
:101700001111111110101010090909090808080811
:101710000707070706060606050505050404040471
:101720000303030302020202004000E060EA00003B
:1017300000F0FFFF4417000000F1FFFF00F2FFFF81
:10174000AC0000400F502DE94E0100EB0100A0E37A
:1017500010109FE5000081E50000A0E3D00F00E538
:101760000F50BDE804F05EE2004000E04A4AD008B5
:10177000C0004A4A10600022484B5A60484A494B10
:101780005A6000221A600100454A4A601A000A6045
:101790007047F8B5040000200090FFF758FA42485F
:1017A0000068002804D1FFF7E1FF01203E490860EE
:1017B000002C12D020000830A0420ED90834600757
:1017C000400F0821081A0019A04204D96007400FF1
:1017D000081A041902E0002400E00024002C32D092
:1017E0003248006884422ED82C4F3800056801E04A
:1017F0002F002D686868A04202D228680028F7D11F
:10180000284885421FD03868083000902868386022
:101810006868001B102810D92E196868001B7060BA
:101820006C6071681D4800E00068026852688A4276
:10183000FAD3026832600660C0461C4968680968CD
:10184000081A1A490860FFF755F90098F8BC08BC57
:10185000184770B506003500002E16D0083D2C0044
:10186000FFF7F5F961680D4800E00068026852680A
:101870008A42FAD30268226004600C4960680968F1
:1018800040180A490860FFF735F970BC08BC1847D2
:10189000064800687047704760020040B80000408A
:1018A000F8330000C0000040B4000040B000004029
:1018B000013090E12100004A0020B0E3A03071E047
:1018C0001A00003A203271E00F00003A203471E033
:1018D0000100003A00C0A0E3200000EAA03371E05C
:1018E000810340200220B2E0203371E00103402058
:1018F0000220B2E0A03271E0810240200220B2E07A
:10190000203271E0010240200220B2E0A03171E0FB
:10191000810140200220B2E0203171E0010140202D
:101920000220B2E0A03071E0810040200220B2E04D
:10193000011050E00010A0310200A2E01EFF2FE1D4
:10194000022111E20010614240C032E0000060223A
:10195000203271E01D00003A203471E00F00003A9F
:101960000113A0E1203471E03F2382E30B00003A31
:101970000113A0E1203471E03F2682E30700003A22
:101980000113A0E1203471E03F2982E30113A0217B
:101990003F2C8223003071E21D00002A2113A02178
:1019A000A03371E0810340200220B2E0203371E0D7
:1019B000010340200220B2E0A03271E08102402009
:1019C0000220B2E0203271E0010240200220B2E0A9
:1019D000A03171E0810140200220B2E0203171E0AD
:1019E000010140200220B2E0EBFFFF2AA03071E0AD
:1019F000810040200220B2E0011050E00010A03130
:101A00000200A2E0CCCFB0E10000604200106122F1
:101A10001EFF2FE1CCCFB0E10000604201402DE974
:101A20000000B0E30000A0E10240BDE81EFF2FE18E
:101A300070477047704700000E50A0E1180000EB9F
:101A400005E0A0E10050B0E10D10A0E10A30A0E1F6
:101A50000700C0E300D0A0E160D08DE220402DE976
:101A6000EAF9FFEB2040BDE80060A0E30070A0E3CE
:101A70000080A0E300B0A0E30710C1E305C0A0E12F
:101A8000C009ACE8C009ACE8C009ACE8C009ACE8E2
:101A900001D0A0E11EFF2FE10400C046C046200097
:101AA000FEF7ACFB00009FE51EFF2FE1583600401B
:101AB00001C08FE21CFF2FE101491820ABDFFEE7D8
:101AC000260002001EFF2FE17847C0460020B0E349
:101AD000203171E092FFFF3AA03271E087FFFF3AB8
:101AE000203471E07CFFFF3A00C0A0E39BFFFFEAD7
:101AF0007847C0466C019FE5000090E500E090E566
:101B000064019FE50200BEE8001080E50100BEE828
:101B100000F06FE1FF7FDEE80000A0E13CE09EE521
:101B200004F05EE2000000EF1EFF2FE104E08EE211
:101B300001002DE900204DE90000A0E104D04DE2B4
:101B40000100BDE8004020E900E0A0E10100BDE89F
:101B5000FF7F4EE90000A0E13CE04EE200004FE1D3
:101B600001002EE900019FE5000090E501002EE94B
:101B7000F0009FE5001090E500E081E5EC009FE5B6
:101B80000FE0A0E110FF2FE1D8009FE5000090E5F5
:101B900000E090E5D0009FE50200BEE8001080E57F
:101BA0000100BEE800F06FE1FF7FDEE80000A0E189
:101BB0003CE09EE504F05EE201002DE900204DE9E5
:101BC0000000A0E104D04DE20100BDE8004020E9A2
:101BD00000E0A0E10100BDE8FF7F4EE90000A0E1C8
:101BE0003CE04EE200004FE101002EE978009FE565
:101BF000000090E501002EE968009FE5001090E5E7
:101C000000E081E568009FE50FE0A0E110FF2FE113
:101C1000000050E30200000A50009FE50FE0A0E141
:101C200010FF2FE10100A0E348109FE5000081E5CF
:101C300044009FE5000080E528009FE5000090E556
:101C400000E090E520009FE50200BEE8001080E57E
:101C50000100BEE800F06FE1FF7FDEE80000A0E1D8
:101C60003CE09EE504F05EE26C000040AC00004009
:101C7000BD0D0000490A0000004000E030F0FFFF09
:101C80007847C046A6FFFFEA00C09FE51CFF2FE192
:101C9000490A00007847C04600000FE1801080E349
:101CA00001F021E1800000E21EFF2FE17847C046ED
:101CB00000000FE18000C0E300F021E11EFF2FE1F2
:101CC0007847C04601C05EE50C0053E10100003AD0
:101CD0000C30DEE7000000EA0330DEE783C08EE070
:101CE0001CFF2FE1041D000000000040C8000000A0
:101CF00048010000CC1D0000C8000040103C00005E
:101D00007001000000000000000000000000001052
:101D1000010011000012010013010014010015015F
:101D2000001601001701001801001901001A010036
:101D30001B01001D01001E01001F01011001011106
:101D40000101120101130101140101150101160124
:101D5000011701011801011901011A01011B0101FB
:101D60001D01011E01011F011E00000000000000F6
:101D70000000000000000000000000000000000063
:101D80000000000000000000000000000000000053
:101D90000000000000000000000000000000000043
:101DA0000300000000000000000000000000000030
:101DB0000F270000F83300000000000000000000C2
:0C1DC00000000000000000000000000017
:0400000500000104F2
:00000001FF
