:020000040000FA
:1000000018F09FE518F09FE518F09FE518F09FE5C0
:1000100018F09FE50000A0E1F0FF1FE518F09FE554
:100020005800000040000000F01B000048000000E5
:100030004C000000000000005000000054000000D0
:10004000FEFFFFEAFEFFFFEAFEFFFFEAFEFFFFEA18
:10005000FEFFFFEAFEFFFFEA94009FE5AA10A0E37F
:100060005520A0E32430A0E3043080E50130A0E374
:10007000003080E50C1080E50C2080E5083090E52C
:10008000013B13E2FCFFFF0A0330A0E3003080E5F0
:100090000C1080E50C2080E558009FE50410A0E3DB
:1000A000041080E50210A0E3001080E548009FE501
:1000B000DBF021E300D0A0E1080040E2D7F021E32B
:1000C00000D0A0E1080040E2D1F021E300D0A0E19F
:1000D000080040E2D2F021E300D0A0E1030C40E2AE
:1000E000D3F021E300D0A0E1030C40E20C009FE537
:1000F00010FF2FE180C01FE000C01FE0E83C00407F
:1001000004010000000000EB2E0000EB2C008FE249
:10011000000C90E800A08AE000B08BE001704AE299
:100120000B005AE10000001A260000EB0F00BAE8AD
:1001300018E04FE2010013E303F0471013FF2FE133
:100140005C1C00007C1C0000102052E27800B028EB
:100150007800A128FBFFFF8A822EB0E13000B02892
:100160003000A12800409045004081451EFF2FE14E
:100170000030B0E30040B0E30050B0E30060B0E313
:10018000102052E27800A128FCFFFF8A822EB0E105
:100190003000A128003081451EFF2FE101C08FE211
:1001A0001CFF2FE11FB5059886460FBC009C02B0CE
:1001B0007047000001C08FE21CFF2FE130B475468C
:1001C000AE4630BC704700004B0600EB0210A0E1C9
:1001D000F1FFFFEB1CC09FE50FC08CE001001CE3AA
:1001E0000DE08F120FE0A0011CFF2FE101C08FE294
:1001F0001CFF2FE101F0B2FCEF0000007847C04681
:1002000003002DE9EAFFFFEB0300BDE8580600EB11
:100210000C009FE50C109FE504209FE508309FE54A
:100220001EFF2FE1C8360040D0390040C8360040DC
:1002300082B000200190C046142101A800F06AFDA0
:100240001121002000F037F937490870F4E782B037
:1002500000200190C0460A2101A800F05BFD324851
:100260000078012805D101221021002000F037F983
:10027000F1E700221021100000F031F9EBE710B592
:1002800001221221002000F02AF900221221100080
:1002900000F025F910BC08BC18477D20C000234998
:1002A000C860080040680121084320494860704741
:1002B00010B5E120400200F049F900F099F8FFF78D
:1002C000ECFF01201A49087010BC08BC184784B024
:1002D000FFF7EEFF0A201749012200230092019147
:1002E0000290642214A1174800F039FB142016492B
:1002F00001220023009201910290642213A116486A
:1003000000F02DFB00F0D1FEC046FEE70748406834
:1003100002210843054948600800406802218843DB
:10032000024948607047000008000040008000E07B
:1003300000C11FE0000000404C65645F5461736BB6
:10034000000000004F020000040000404275747479
:100350006F6E5F5461736B003102000001002DE984
:1003600000204DE90000A0E104D04DE20100BDE80D
:10037000004020E900E0A0E10100BDE8FF7F4EE978
:100380000000A0E13CE04EE200004FE101002EE958
:100390004C009FE5000090E501002EE944009FE538
:1003A000001090E500E081E53C009FE50FE0A0E152
:1003B00010FF2FE12C009FE5000090E500E090E5A4
:1003C0001C009FE50200BEE8001080E50100BEE8C9
:1003D00000F06FE1FF7FDEE80000A0E13CE09EE579
:1003E00004F05EE2B80000407000004045060000E6
:1003F00000205BE041004118514A515C002902D0C5
:10040000012950D127E0410041184D4A89188978C7
:1004100000290CD14B49896842008218484BD218F8
:10042000537801229A409143464A916012E041007C
:100430004118434A8918897801290BD141498968B3
:10044000420082183E4BD218537801229A40114341
:100450003C4A916028E041004118394A891889785E
:1004600000290CD13749896942008218344BD218CF
:10047000537801229A409143324A916112E041003F
:1004800041182F4A8918897801290BD12D4989698A
:10049000420082182A4BD218537801229A40114305
:1004A000284A916100E0C046C046401C26490988A0
:1004B00088429FDB70470200002A02D0012A0CD13B
:1004C00005E0204B1B68CB40D807C00F05E01D4B53
:1004D0001B69CB40D807C00FC046C046704710B458
:1004E000002802D0012827D113E0002A07D1154B9C
:1004F000DB6801248C402343124CE36008E0012AAE
:1005000006D1104B5B6801248C4023430D4C636083
:1005100012E0002A07D10B4BDB6901248C402343F6
:10052000084CE36108E0012A06D1064B5B6901240F
:100530008C402343034C6361C04610BC70470000ED
:100540000A000040008002E06400004070B5050031
:100550005A48006801210904084358490860080006
:100560000068012189040843544908602E013100C4
:10057000534801F00BFB04005248007B80210843E4
:10058000504908730C70240A0C710720087203206C
:1005900008734814C068802188434B49C86008002C
:1005A0000069802108434849086148484849486033
:1005B00027204849486043480079032108434149BE
:1005C000087170BC08BC1847010043480078012836
:1005D00009D10020404A10704048007800060016FB
:1005E0000870012070470020FCE7364A1070704701
:1005F00070B505000C003A480078002820D1002D85
:100600001ED038490C7036490C70002303E0E85CBA
:100610003549C8545B1CA342F9DB31490A78097893
:10062000491E2F4E31702F490978891A2E4A515C84
:1006300009060816FFF7D9FF012070BC08BC18474F
:100640000020FAE710B41F4A107A2EE00207120FBA
:10065000022A0BD0042A1CD0062A02D00C2A20D150
:1006600016E0184A127D110609161BE01C4A127882
:10067000002A0CDD1A4A13781278521E184C227088
:10068000184A1278D21A184B9A5C0E4B1A7009E06D
:10069000C0460C4A1278114B1A7001220E4B1A7088
:1006A00000E0C046C046074A107AC207D20FCDD03C
:1006B0000022054B1A6310BC7047000000C002E026
:1006C00000879303000001E000F0FFFF5C030000DF
:1006D00000F1FFFF00F2FFFF6600004067000040EE
:1006E0006900004068000040D4000040010008316B
:1006F00041600021C943816001000831C16001618E
:1007000000210160704700210161704742684A6022
:1007100093688B60936859609160086103685B1C03
:100720000360704730B402000B685C1C01D1106993
:100730000CE01000083005E0144C2468641C134DD4
:100740002C604068446824689C42F5D944684C6039
:100750004C68A160886041600A611468641C146080
:1007600030BC704701000A694B6888689860081DB2
:1007700009C858605068884201D1886850600020DC
:1007800008611068401E1060106870476C000040DF
:1007900010B5002406E014216143FD4A8818FFF7D4
:1007A000A5FF641C042CF6D3FA48FFF79FFFFA4814
:1007B000FFF79CFFF948FFF799FFF948FFF796FF0D
:1007C000F848FFF793FFF848FFF790FFF248F74922
:1007D0000860F248F649086010BC08BC184710B51C
:1007E000040000F0E0FFF3480068401CF149086095
:1007F000F1480068002808D1EF480460080000684C
:1008000001280ED1FFF7C4FF0BE0EC480068002878
:1008100007D1E9480068C06AE16A884201D8E64821
:100820000460E7480068401CE5490860211DD9487C
:10083000FFF778FF00F0C2FFE0480068002807D00B
:10084000DD480068C06AE16A884201D201F07AFAA4
:1008500010BC08BC1847FFB581B00E000A9F0C9C65
:10086000216B0398401E8000081800900098C00873
:10087000C0000090002E11D0002508E0715D20001E
:1008800034304155705D002800D102E06D1C082D08
:10089000F4D3C04600213B20015502E00021342062
:1008A0000155042F00D30327E762201DFFF72BFF1C
:1008B00020001830FFF727FF24610420C01BA0612F
:1008C00064620021E16340200155049A684603C830
:1008D00000F002FF20600B98002801D00B98046004
:1008E00005B0F0BC08BC1847FFB585B01700B800CC
:1008F00000F0B1FF0600002E0BD0482000F0ABFF47
:100900000400002C01D0266304E0300001F003F85D
:1009100000E00024002C10D000220EA803C86B4673
:1009200013C303923A00089B05A803C8FFF793FF7F
:100930002000FFF754FF012501E00025ED432800CA
:1009400009B0F0BC08BC184710B500F02CFF9D485A
:10095000046800F033FF200010BC08BC1847FFB546
:1009600085B01700002004909749109808601098EF
:100970006064FFF7E9FF0490944904980860616C93
:10098000049808186060B80000F065FF0600002EAB
:100990000BD0482000F05FFF0400002C01D026633C
:1009A00004E0300000F0B7FF00E00024002C10D07D
:1009B00000220EA803C86B4613C303923A00089B9B
:1009C00005A803C8FFF747FF2000FFF708FF012530
:1009D00001E00025ED43280009B0F0BC08BC184731
:1009E000724800680068002801D1012000E0002062
:1009F000002804D00020C0437549086005E06B481A
:100A00000068C068006872490860704710B504004B
:100A1000206B00F080FF200000F07DFF10BC08BCC0
:100A2000184770B5050000F0BEFE002D02D16248E7
:100A3000006800E028000400201DFFF793FEA06A74
:100A4000002803D020001830FFF78CFE5C480068B7
:100A5000401C5B49086058480068844209D1211D48
:100A60005048FFF753FE5B480068401C5949086036
:100A700009E050480068401E4E4908602000FFF71A
:100A8000C5FFFFF7ADFF00F099FE4C480068002855
:100A900005D049480068844201D101F053F970BC87
:100AA00008BC1847F8B5002000904B4800680028A3
:100AB0006DD144480068451C42480560002D0FD1A7
:100AC0003A4807683A48006838490860384807607B
:100AD00042480068401C41490860FFF781FFC0465A
:100AE000606C40193A4960600860080000688542FF
:100AF0003BD3C0462D4800680068002801D1012082
:100B000000E00020002804D00020C04330490860E5
:100B10002AE026480068C068C4686668E06A002861
:100B200003D1606C401964306060B54202D228483D
:100B3000066019E0201DFFF715FEA06A002803D00B
:100B400020001830FFF70EFE606C40196060211D18
:100B50001048FFF7E7FD184960680968496888424E
:100B6000C8D201200090C5E7C04613480068C06A9B
:100B70001421484306490858012801D90120009052
:100B800017480068002801D0012000902FE029E0DC
:100B9000B00100409C0100400002004014020040EF
:100BA000280200403C02004050020040B0000040DB
:100BB000B400004078000040700000408400004015
:100BC000940000407C000040AC000040A8000040C1
:100BD0009800004074000040A400004090000040D5
:100BE0008C000040F8480068401CF74908600098F5
:100BF000F8BC08BC184770B50024002600F0D3FDEF
:100C0000F2480068401EF1490860080000680028AA
:100C100041D1EF48006800283DD016E0ED48C0689B
:100C2000C46820001830FFF79DFD201DFFF79AFDD6
:100C3000211DE948FFF776FDE849E06A0968C96ABD
:100C4000884202D30120E6490860E2480068002893
:100C500001D1012000E000200028DFD0002C01D0CD
:100C6000FFF7BEFED8480568002D0DD0C046FFF73F
:100C700019FF002802D00120D94908606D1E002DFF
:100C8000F5D10020D0490860D5480068002802D07E
:100C9000012601F057F800F091FD300070BC08BC4F
:100CA0001847F8B505000E00CE480768CB48006825
:100CB000001DFFF757FD681C08D1002E06D0C7485D
:100CC0000168091DC848FFF721FD1AE07C19C348D7
:100CD00000684460BC4207D2C0480168091DC3488F
:100CE0000068FFF71FFD0CE0BC480168091DC04803
:100CF0000068FFF717FDBF480068844201D2BD4875
:100D00000460F8BC08BC1847B0480068401CAF49F4
:100D100008607047F3B581B0040000200090FFF731
:100D2000F3FFB0480668216802980D182068B042A9
:100D300007D92068A8420BD9B54209D901200090F3
:100D400006E02068A84201D8B54201D901200090F0
:100D500025600098002803D0A81B0021FFF7A1FF01
:100D6000FFF749FF0700002F01D100F0EBFF0098CB
:100D7000FEBC08BC184770B504000025002C08D044
:100D8000FFF7C2FF00212000FFF78BFFFFF733FFC3
:100D90000500002D01D100F0D5FF70BC08BC18473C
:100DA00070B5040000F0FFFC002C02D18B480068F5
:100DB00000E020000600F56A00F000FD280070BC8D
:100DC00008BC184710B401000023002902D1834C4D
:100DD000246800E00C002200D06A10BC7047FEB509
:100DE00007000D0000200090042D00D3032500F023
:100DF000DAFC002F02D17948006800E038000400D6
:100E0000E66AAE4237D0B5420BD9744800688442D6
:100E10000DD072480068C06AA84208D8012000902E
:100E200005E06E480068844201D101200090E06A2C
:100E30000190E562A069C00FC00702D10420401BE9
:100E4000A06161691422019850436B4A8018814265
:100E500001D1012000E00020002806D0201DFFF76E
:100E600081FC211D5C48FFF75DFC0098002801D043
:100E700000F068FFC04600F0A1FCFEBC08BC1847AB
:100E800052480068002803D001205549086007E057
:100E90000020534908605048C068C0684F49086046
:100EA000704770B5050000F07EFC002D02D14B4864
:100EB000006800E028000400201DFFF753FCA06A32
:100EC000002803D020001830FFF74CFC211D4648B5
:100ED000FFF71CFC002009E021004031095C0129DA
:100EE00003D10022210040310A54401C0128F3DBC9
:100EF00000F064FC41480068002805D000F053FC75
:100F0000FFF76EFD00F05AFC34480068844212D1AD
:100F10003A480068002802D000F014FF0BE0324885
:100F200000682B490968884203D100202B490860DA
:100F300001E0FFF7A5FF70BC08BC184710B4010022
:100F400000200A00284C5369A34201D1012300E08C
:100F50000023002B11D01F4C936AA34201D101231F
:100F600000E00023002B08D1936A002B01D101235C
:100F700000E00023002B00D0012010BC704770B5AA
:100F800005002C0015480068844219D0002C17D0A9
:100F900000F009FC2000FFF7D1FF00280ED0201D33
:100FA000FFF7E0FB211D0C48FFF7BCFB0B49E06A93
:100FB0000968C96A884201D300F0C4FE00F0FEFB54
:100FC00070BC08BC1847000088000040A400004026
:100FD00078000040280200409C0100407000004062
:100FE0008C0000407C00004050020040B4000040F3
:100FF000B000004098000040B00100408400004074
:10100000F8B5050000262C0000272000FFF796FF0A
:1010100000281AD0FE480068002811D1FD49E06A76
:101020000968C96A884203D301260120FA49086089
:10103000201DFFF797FB211DF848FFF773FB04E025
:1010400021001831F648FFF761FB3000F8BC08BCFE
:10105000184710B516E000F0A6FBF248C068C46857
:10106000201DFFF77FFBF0480068401EEE49086036
:10107000EE480068401EED49086000F09FFB20002C
:10108000FFF7C4FCE94800680028E4D110BC08BCA4
:101090001847C046FFF7DDFFE5480068012801D981
:1010A00000F050FEFFF7EBF8F4E73EB56425C046CC
:1010B0000020009003005A22DEA101AC21C4DF48C9
:1010C000FFF74DFC0400012C0CD100F03FFEA01EE8
:1010D000DB4908600120DB4908600020DA4908602C
:1010E00000F057FBD94800683EBC08BC184710B553
:1010F00000F02CFE0020D349086000F053FB10BC28
:1011000008BC18470021D04A10687047C6480068DC
:1011100070470100002902D1BE48006800E00800C5
:10112000020010003430704770B50400FFF7ECFD8A
:10113000C74800680019C6490860FFF75CFD050054
:10114000280070BC08BC184770B505000C00B148F9
:10115000016818312800FFF7E5FA01212000FFF7A8
:10116000A0FD70BC08BC184770B506000C00150047
:101170000120C0072043A74909688861A548016884
:1011800018313000FFF7C2FA01212800FFF789FD6E
:1011900070BC08BC184770B50600F068C468200031
:1011A0001830FFF7DFFA9A480068002807D1201DA1
:1011B000FFF7D8FA211D9948FFF7B4FA04E021009F
:1011C00018319748FFF7A2FA9249E06A0968C96A9C
:1011D000884204D9012501208F49086000E00025DC
:1011E000280070BC08BC184770B504000E00012030
:1011F000C00730432060E5682000FFF7B3FA281DE0
:10120000FFF7B0FA291D8548FFF78CFA8149E86A93
:101210000968C96A884202D901207F49086070BC08
:1012200008BC184710B5040000F0BDFA89480068F2
:10123000206085480068606000F0C0FA10BC08BCFF
:1012400018478449096801607F490968416070470F
:1012500070B506000C0000F0A6FA7B4802687068C2
:10126000131A2068401C01D1002519E07949306823
:101270000968884206D07068904203D80125002092
:1012800020600DE02068984207D92068C01A2060CD
:101290003000FFF7D6FF002502E000202060012586
:1012A00000F08CFA280070BC08BC184701205A498D
:1012B0000860704757490968886956490968C96ACA
:1012C0000422511A534A126891617047F8B504001C
:1012D0000F00160000F067FAA1004E4800683C308D
:1012E000405800280BD101214A4800684030015580
:1012F000002E04D03000FFF7D4FC00F023FD00F0F6
:101300005DFA00F050FAA100424800683C304558B0
:10131000002D0ED0002F06D00021A2003D4800680D
:101320003C30815005E0681EA2003A4909683C3112
:1013300088500021374800684030015500F03EFADF
:101340002800F8BC08BC1847FFB581B004000F00A6
:101350001D0000F028FA2F4800684030005D022888
:1013600014D0A2002B4909683C3150180168B943D8
:101370000160012127480068403001550A98002883
:1013800004D00A98FFF78DFC00F0DCFC00F016FAA0
:1013900000F009FA002D05D0A1001E4800683C307D
:1013A000405828601B4800684030005D022801D08A
:1013B000002609E0A200174909683C31501802686C
:1013C00003998A43026001260021124800684030D8
:1013D000015500F0F3F9300005B0F0BC08BC184727
:1013E000FFB583B00D0016001F0001200290039C82
:1013F00000F0D9F90C98002805D0A90020003C3055
:1014000041580C98016020004030405D019023E07D
:10141000A4000040700000408C0000409C0100408F
:10142000280200403C020040780000407400004068
:10143000B001004049444C450000000093100000FA
:1014400098000040840000407C000040A000004064
:1014500088000040900000400221200040304155AB
:101460003B0000F089FC0528040E181D2900A90086
:1014700020003C3040583043AA0021003C318850C5
:101480001BE0A90020003C304058401CAA0021006D
:101490003C31885011E0A90020003C3046500CE05F
:1014A0000198022804D0A90020003C30465001E0F9
:1014B0000020029001E000E0C046C04601980128EB
:1014C0000ED1201DFFF74EF9211D7E48FFF72AF9A6
:1014D0007D49E06A0968C96A884201D900F032FC96
:1014E00000F06CF9029807B0F0BC08BC1847FFB5D3
:1014F00083B00D0016001F0001200190039C002006
:1015000000900C98002805D0A90020003C304158DC
:101510000C98016020004030405D029002212000C4
:10152000403041553B0000F027FC0528040E181DF3
:101530002900A90020003C3040583043AA00210077
:101540003C3188501BE0A90020003C304058401C32
:10155000AA0021003C31885011E0A90020003C3055
:1015600046500CE00298022804D0A90020003C302C
:10157000465001E00020019001E000E0C046C04676
:10158000029801281FD151480068002807D1201D6A
:10159000FFF7E8F8211D4B48FFF7C4F804E02100ED
:1015A00018314B48FFF7B2F84749E06A0968C96A41
:1015B000884208D90D98002802D001210D980160B9
:1015C000012044490860019807B0F0BC08BC1847E6
:1015D000FEB505000E0017002C0000200090200032
:1015E0004030805D01900221200040308155B100E3
:1015F000001F4058401CB20021003C318850019827
:1016000001281DD131480068002807D1201DFFF7AF
:10161000A9F8211D2B48FFF785F804E021001831B7
:101620002B48FFF773F82849E06A0968C96A8842BD
:1016300006D9002F01D0012038600120254908601B
:10164000FEBC08BC1847F8B506000C00002E02D1FD
:101650001D48006800E03000070000F0A4F83800E2
:101660004030005D022805D100213800403001558E
:10167000012500E0002500F0A1F82800F8BC08BC16
:101680001847F8B506000C001700002E02D10E48CE
:10169000006800E03000050000F085F8A100280097
:1016A0003C3040580090A10028003C304058B843DE
:1016B000A20029003C31885000F080F80098F8BC66
:1016C00008BC18479C01004070000040A400004086
:1016D000280200408C00004030B40300001F0C1DA5
:1016E0000460001F3F4C0460001F0360001F3E4C5D
:1016F0000460001F3D4C0460001F3D4C0460001F4F
:101700003C4C0460001F3C4C0460001F3B4C0460D8
:10171000001F3B4C0460001F3A4C0460001F3A4C11
:101720000460001F394C0460001F394C0460001F26
:1017300064100460001F0260001F1F240460CC07B7
:10174000E40F03D0202504682C430460001F00240C
:10175000046030BC704700212E4AD1602E48110031
:101760008861032151615114C968102291432B4AA9
:10177000D1601100096910221143284A11612849DA
:10178000284A11602421284A11600121214A516010
:10179000704710B5FFF7DFFF00F00CFA002010BC17
:1017A00008BC1847704710B500F0D0FA1F48006811
:1017B000401C1E49086010BC08BC184710B51B48E7
:1017C000006800280AD019480068401E17490860C0
:1017D00008000068002801D100F0C4FA10BC08BC61
:1017E00018470000AAAAAAAA121212121111111166
:1017F0001010101009090909080808080707070749
:101800000606060605050505040404040303030390
:1018100002020202004000E060EA000000F0FFFF68
:101820007C1C000000F1FFFF00F2FFFFB800004049
:101830004A4AD008C0004A4A10600022484B5A6009
:10184000484A494B5A6000221A600100454A4A60E2
:101850001A000A607047F8B5040000200090FFF7F6
:1018600053FA42480068002804D1FFF7E1FF012045
:101870003E490860002C12D020000830A0420ED94A
:1018800008346007400F0821081A0019A04204D943
:101890006007400F081A041902E0002400E0002449
:1018A000002C32D03248006884422ED82C4F3800A9
:1018B000056801E02F002D686868A04202D2286800
:1018C0000028F7D1284885421FD03868083000909A
:1018D000286838606868001B102810D92E196868BD
:1018E000001B70606C6071681D4800E00068026851
:1018F00052688A42FAD3026832600660C0461C49C8
:1019000068680968081A1A490860FFF774F90098AE
:10191000F8BC08BC184770B506003500002E16D07C
:10192000083D2C00FFF7F0F961680D4800E0006801
:10193000026852688A42FAD30268226004600C4945
:101940006068096840180A490860FFF754F970BCDC
:1019500008BC184706480068704770476C02004092
:10196000C4000040F8330000CC000040C00000403C
:10197000BC000040013090E12100004A0020B0E3AB
:10198000A03071E01A00003A203271E00F00003AF6
:10199000203471E00100003A00C0A0E3200000EA1A
:1019A000A03371E0810340200220B2E0203371E0D7
:1019B000010340200220B2E0A03271E08102402009
:1019C0000220B2E0203271E0010240200220B2E0A9
:1019D000A03171E0810140200220B2E0203171E0AD
:1019E000010140200220B2E0A03071E081004020DF
:1019F0000220B2E0011050E00010A0310200A2E08D
:101A00001EFF2FE1022111E20010614240C032E0CE
:101A100000006022203271E01D00003A203471E0A5
:101A20000F00003A0113A0E1203471E03F2382E36C
:101A30000B00003A0113A0E1203471E03F2682E35D
:101A40000700003A0113A0E1203471E03F2982E34E
:101A50000113A0213F2C8223003071E21D00002AD7
:101A60002113A021A03371E0810340200220B2E0C5
:101A7000203371E0010340200220B2E0A03271E087
:101A8000810240200220B2E0203271E001024020B9
:101A90000220B2E0A03171E0810140200220B2E0DA
:101AA000203171E0010140200220B2E0EBFFFF2A6B
:101AB000A03071E0810040200220B2E0011050E02F
:101AC0000010A0310200A2E0CCCFB0E100006042E3
:101AD000001061221EFF2FE1CCCFB0E10000604278
:101AE00001402DE90000B0E30000A0E10240BDE8A4
:101AF0001EFF2FE170477047704700000E50A0E1B5
:101B0000180000EB05E0A0E10050B0E10D10A0E1ED
:101B10000A30A0E10700C0E300D0A0E160D08DE270
:101B200020402DE9B9F9FFEB2040BDE80060A0E3BB
:101B30000070A0E30080A0E300B0A0E30710C1E3C1
:101B400005C0A0E1C009ACE8C009ACE8C009ACE838
:101B5000C009ACE801D0A0E11EFF2FE10400C0469F
:101B6000C0462000FEF74AFB00009FE51EFF2FE164
:101B70006436004001C08FE21CFF2FE101491820AC
:101B8000ABDFFEE7260002001EFF2FE17847C046CC
:101B90000020B0E3203171E092FFFF3AA03271E003
:101BA00087FFFF3A203471E07CFFFF3A00C0A0E3DA
:101BB0009BFFFFEA7847C0466C019FE5000090E577
:101BC00000E090E564019FE50200BEE8001080E5BA
:101BD0000100BEE800F06FE1FF7FDEE80000A0E159
:101BE0003CE09EE504F05EE2000000EF1EFF2FE106
:101BF00004E08EE201002DE900204DE90000A0E1A3
:101C000004D04DE20100BDE8004020E900E0A0E181
:101C10000100BDE8FF7F4EE90000A0E13CE04EE29C
:101C200000004FE101002EE900019FE5000090E572
:101C300001002EE9F0009FE5001090E500E081E54D
:101C4000EC009FE50FE0A0E110FF2FE1D8009FE539
:101C5000000090E500E090E5D0009FE50200BEE8BE
:101C6000001080E50100BEE800F06FE1FF7FDEE8D4
:101C70000000A0E13CE09EE504F05EE201002DE9F9
:101C800000204DE90000A0E104D04DE20100BDE8D4
:101C9000004020E900E0A0E10100BDE8FF7F4EE93F
:101CA0000000A0E13CE04EE200004FE101002EE91F
:101CB00078009FE5000090E501002EE968009FE5AF
:101CC000001090E500E081E568009FE50FE0A0E1ED
:101CD00010FF2FE1000050E30200000A50009FE5D2
:101CE0000FE0A0E110FF2FE10100A0E348109FE505
:101CF000000081E544009FE5000080E528009FE5A5
:101D0000000090E500E090E520009FE50200BEE8BD
:101D1000001080E50100BEE800F06FE1FF7FDEE823
:101D20000000A0E13CE09EE504F05EE270000040AF
:101D3000B8000040810E0000A50A0000004000E04D
:101D400030F0FFFF7847C046A6FFFFEA7847C0465D
:101D500000000FE1801080E301F021E1800000E24B
:101D60001EFF2FE17847C04600000FE18000C0E36E
:101D700000F021E11EFF2FE17847C04601C05EE57B
:101D80000C0053E10100003A0C30DEE7000000EAED
:101D90000330DEE783C08EE01CFF2FE1BC1D000096
:101DA00000000040D400000048010000901E000028
:101DB000D4000040143C000070010000000000004E
:101DC00000000000000000100100110000120100DE
:101DD000130100140100150100160100170100187D
:101DE00001001901001A01001B01001D01001E0164
:101DF000001F010110010111010112010113010174
:101E00001401011501011601011701011801011941
:101E100001011A01011B01011D01011E01011F0128
:101E20001E00000000000000000000000000000094
:101E300000000000000000000000000000000000A2
:101E40000000000000000000000000000000000092
:101E5000000000000000000000000000030000007F
:101E60000000000000000000000000000000000072
:101E7000000000000F270000F83300000000000001
:101E80000000000000000000000000000000000052
:0400000500000104F2
:00000001FF
